{
  "abi": [
    {
      "inputs": [
        {
          "internalType": "string",
          "name": "name",
          "type": "string"
        },
        {
          "internalType": "string",
          "name": "symbol",
          "type": "string"
        },
        {
          "internalType": "bytes32",
          "name": "merkleroot",
          "type": "bytes32"
        }
      ],
      "stateMutability": "nonpayable",
      "type": "constructor"
    },
    {
      "anonymous": false,
      "inputs": [
        {
          "indexed": true,
          "internalType": "address",
          "name": "owner",
          "type": "address"
        },
        {
          "indexed": true,
          "internalType": "address",
          "name": "approved",
          "type": "address"
        },
        {
          "indexed": true,
          "internalType": "uint256",
          "name": "tokenId",
          "type": "uint256"
        }
      ],
      "name": "Approval",
      "type": "event"
    },
    {
      "anonymous": false,
      "inputs": [
        {
          "indexed": true,
          "internalType": "address",
          "name": "owner",
          "type": "address"
        },
        {
          "indexed": true,
          "internalType": "address",
          "name": "operator",
          "type": "address"
        },
        {
          "indexed": false,
          "internalType": "bool",
          "name": "approved",
          "type": "bool"
        }
      ],
      "name": "ApprovalForAll",
      "type": "event"
    },
    {
      "anonymous": false,
      "inputs": [
        {
          "indexed": true,
          "internalType": "address",
          "name": "from",
          "type": "address"
        },
        {
          "indexed": true,
          "internalType": "address",
          "name": "to",
          "type": "address"
        },
        {
          "indexed": true,
          "internalType": "uint256",
          "name": "tokenId",
          "type": "uint256"
        }
      ],
      "name": "Transfer",
      "type": "event"
    },
    {
      "inputs": [
        {
          "internalType": "address",
          "name": "to",
          "type": "address"
        },
        {
          "internalType": "uint256",
          "name": "tokenId",
          "type": "uint256"
        }
      ],
      "name": "approve",
      "outputs": [],
      "stateMutability": "nonpayable",
      "type": "function"
    },
    {
      "inputs": [
        {
          "internalType": "address",
          "name": "owner",
          "type": "address"
        }
      ],
      "name": "balanceOf",
      "outputs": [
        {
          "internalType": "uint256",
          "name": "",
          "type": "uint256"
        }
      ],
      "stateMutability": "view",
      "type": "function"
    },
    {
      "inputs": [
        {
          "internalType": "uint256",
          "name": "tokenId",
          "type": "uint256"
        }
      ],
      "name": "getApproved",
      "outputs": [
        {
          "internalType": "address",
          "name": "",
          "type": "address"
        }
      ],
      "stateMutability": "view",
      "type": "function"
    },
    {
      "inputs": [
        {
          "internalType": "address",
          "name": "owner",
          "type": "address"
        },
        {
          "internalType": "address",
          "name": "operator",
          "type": "address"
        }
      ],
      "name": "isApprovedForAll",
      "outputs": [
        {
          "internalType": "bool",
          "name": "",
          "type": "bool"
        }
      ],
      "stateMutability": "view",
      "type": "function"
    },
    {
      "inputs": [],
      "name": "name",
      "outputs": [
        {
          "internalType": "string",
          "name": "",
          "type": "string"
        }
      ],
      "stateMutability": "view",
      "type": "function"
    },
    {
      "inputs": [
        {
          "internalType": "uint256",
          "name": "tokenId",
          "type": "uint256"
        }
      ],
      "name": "ownerOf",
      "outputs": [
        {
          "internalType": "address",
          "name": "",
          "type": "address"
        }
      ],
      "stateMutability": "view",
      "type": "function"
    },
    {
      "inputs": [
        {
          "internalType": "address",
          "name": "_account",
          "type": "address"
        },
        {
          "internalType": "uint256",
          "name": "_tokenId",
          "type": "uint256"
        },
        {
          "internalType": "bytes32[]",
          "name": "_proof",
          "type": "bytes32[]"
        }
      ],
      "name": "redeem",
      "outputs": [],
      "stateMutability": "nonpayable",
      "type": "function"
    },
    {
      "inputs": [],
      "name": "root",
      "outputs": [
        {
          "internalType": "bytes32",
          "name": "",
          "type": "bytes32"
        }
      ],
      "stateMutability": "view",
      "type": "function"
    },
    {
      "inputs": [
        {
          "internalType": "address",
          "name": "from",
          "type": "address"
        },
        {
          "internalType": "address",
          "name": "to",
          "type": "address"
        },
        {
          "internalType": "uint256",
          "name": "tokenId",
          "type": "uint256"
        }
      ],
      "name": "safeTransferFrom",
      "outputs": [],
      "stateMutability": "nonpayable",
      "type": "function"
    },
    {
      "inputs": [
        {
          "internalType": "address",
          "name": "from",
          "type": "address"
        },
        {
          "internalType": "address",
          "name": "to",
          "type": "address"
        },
        {
          "internalType": "uint256",
          "name": "tokenId",
          "type": "uint256"
        },
        {
          "internalType": "bytes",
          "name": "data",
          "type": "bytes"
        }
      ],
      "name": "safeTransferFrom",
      "outputs": [],
      "stateMutability": "nonpayable",
      "type": "function"
    },
    {
      "inputs": [
        {
          "internalType": "address",
          "name": "operator",
          "type": "address"
        },
        {
          "internalType": "bool",
          "name": "approved",
          "type": "bool"
        }
      ],
      "name": "setApprovalForAll",
      "outputs": [],
      "stateMutability": "nonpayable",
      "type": "function"
    },
    {
      "inputs": [
        {
          "internalType": "bytes4",
          "name": "interfaceId",
          "type": "bytes4"
        }
      ],
      "name": "supportsInterface",
      "outputs": [
        {
          "internalType": "bool",
          "name": "",
          "type": "bool"
        }
      ],
      "stateMutability": "view",
      "type": "function"
    },
    {
      "inputs": [],
      "name": "symbol",
      "outputs": [
        {
          "internalType": "string",
          "name": "",
          "type": "string"
        }
      ],
      "stateMutability": "view",
      "type": "function"
    },
    {
      "inputs": [
        {
          "internalType": "uint256",
          "name": "tokenId",
          "type": "uint256"
        }
      ],
      "name": "tokenURI",
      "outputs": [
        {
          "internalType": "string",
          "name": "",
          "type": "string"
        }
      ],
      "stateMutability": "view",
      "type": "function"
    },
    {
      "inputs": [
        {
          "internalType": "address",
          "name": "from",
          "type": "address"
        },
        {
          "internalType": "address",
          "name": "to",
          "type": "address"
        },
        {
          "internalType": "uint256",
          "name": "tokenId",
          "type": "uint256"
        }
      ],
      "name": "transferFrom",
      "outputs": [],
      "stateMutability": "nonpayable",
      "type": "function"
    }
  ],
  "bytecode": {
    "object": "0x60a06040523480156200001157600080fd5b50604051620018aa380380620018aa833981016040819052620000349162000127565b8282600062000044838262000229565b50600162000053828262000229565b50505060805250620002f59050565b634e487b7160e01b600052604160045260246000fd5b600082601f8301126200008a57600080fd5b81516001600160401b0380821115620000a757620000a762000062565b604051601f8301601f19908116603f01168101908282118183101715620000d257620000d262000062565b81604052838152602092508683858801011115620000ef57600080fd5b600091505b83821015620001135785820183015181830184015290820190620000f4565b600093810190920192909252949350505050565b6000806000606084860312156200013d57600080fd5b83516001600160401b03808211156200015557600080fd5b620001638783880162000078565b945060208601519150808211156200017a57600080fd5b50620001898682870162000078565b925050604084015190509250925092565b600181811c90821680620001af57607f821691505b602082108103620001d057634e487b7160e01b600052602260045260246000fd5b50919050565b601f8211156200022457600081815260208120601f850160051c81016020861015620001ff5750805b601f850160051c820191505b8181101562000220578281556001016200020b565b5050505b505050565b81516001600160401b0381111562000245576200024562000062565b6200025d816200025684546200019a565b84620001d6565b602080601f8311600181146200029557600084156200027c5750858301515b600019600386901b1c1916600185901b17855562000220565b600085815260208120601f198616915b82811015620002c657888601518255948401946001909101908401620002a5565b5085821015620002e55787850151600019600388901b60f8161c191681555b5050505050600190811b01905550565b6080516115926200031860003960008181610266015261086201526115926000f3fe608060405234801561001057600080fd5b50600436106100f55760003560e01c80636352211e11610097578063b88d4fde11610066578063b88d4fde146101ff578063c87b56dd14610212578063e985e9c514610225578063ebf0c7171461026157600080fd5b80636352211e146101b057806370a08231146101c357806395d89b41146101e4578063a22cb465146101ec57600080fd5b8063095ea7b3116100d3578063095ea7b31461016257806314132f481461017757806323b872dd1461018a57806342842e0e1461019d57600080fd5b806301ffc9a7146100fa57806306fdde0314610122578063081812fc14610137575b600080fd5b61010d610108366004611057565b610288565b60405190151581526020015b60405180910390f35b61012a6102da565b60405161011991906110c4565b61014a6101453660046110d7565b61036c565b6040516001600160a01b039091168152602001610119565b61017561017036600461110c565b610393565b005b610175610185366004611136565b6104ad565b6101756101983660046111c0565b610546565b6101756101ab3660046111c0565b610577565b61014a6101be3660046110d7565b610592565b6101d66101d13660046111fc565b6105f2565b604051908152602001610119565b61012a610678565b6101756101fa366004611217565b610687565b61017561020d366004611269565b610696565b61012a6102203660046110d7565b6106c8565b61010d610233366004611345565b6001600160a01b03918216600090815260056020908152604080832093909416825291909152205460ff1690565b6101d67f000000000000000000000000000000000000000000000000000000000000000081565b60006001600160e01b031982166380ac58cd60e01b14806102b957506001600160e01b03198216635b5e139f60e01b145b806102d457506301ffc9a760e01b6001600160e01b03198316145b92915050565b6060600080546102e990611378565b80601f016020809104026020016040519081016040528092919081815260200182805461031590611378565b80156103625780601f1061033757610100808354040283529160200191610362565b820191906000526020600020905b81548152906001019060200180831161034557829003601f168201915b5050505050905090565b60006103778261073c565b506000908152600460205260409020546001600160a01b031690565b600061039e82610592565b9050806001600160a01b0316836001600160a01b0316036104105760405162461bcd60e51b815260206004820152602160248201527f4552433732313a20617070726f76616c20746f2063757272656e74206f776e656044820152603960f91b60648201526084015b60405180910390fd5b336001600160a01b038216148061042c575061042c8133610233565b61049e5760405162461bcd60e51b815260206004820152603d60248201527f4552433732313a20617070726f76652063616c6c6572206973206e6f7420746f60448201527f6b656e206f776e6572206f7220617070726f76656420666f7220616c6c0000006064820152608401610407565b6104a8838361079e565b505050565b6104f36104ba858561080c565b83838080602002602001604051908101604052809392919081815260200183836020028082843760009201919091525061085a92505050565b6105365760405162461bcd60e51b815260206004820152601460248201527324b73b30b634b21036b2b935b63290383937b7b360611b6044820152606401610407565b6105408484610887565b50505050565b61055033826108a1565b61056c5760405162461bcd60e51b8152600401610407906113b2565b6104a8838383610920565b6104a883838360405180602001604052806000815250610696565b6000818152600260205260408120546001600160a01b0316806102d45760405162461bcd60e51b8152602060048201526018602482015277115490cdcc8c4e881a5b9d985b1a59081d1bdad95b88125160421b6044820152606401610407565b60006001600160a01b03821661065c5760405162461bcd60e51b815260206004820152602960248201527f4552433732313a2061646472657373207a65726f206973206e6f7420612076616044820152683634b21037bbb732b960b91b6064820152608401610407565b506001600160a01b031660009081526003602052604090205490565b6060600180546102e990611378565b610692338383610a84565b5050565b6106a033836108a1565b6106bc5760405162461bcd60e51b8152600401610407906113b2565b61054084848484610b52565b60606106d38261073c565b60006106ea60408051602081019091526000815290565b9050600081511161070a5760405180602001604052806000815250610735565b8061071484610b85565b6040516020016107259291906113ff565b6040516020818303038152906040525b9392505050565b6000818152600260205260409020546001600160a01b031661079b5760405162461bcd60e51b8152602060048201526018602482015277115490cdcc8c4e881a5b9d985b1a59081d1bdad95b88125160421b6044820152606401610407565b50565b600081815260046020526040902080546001600160a01b0319166001600160a01b03841690811790915581906107d382610592565b6001600160a01b03167f8c5be1e5ebec7d5bd14f71427d1e84f3dd0314c0f7b2291e5b200ac8c7c3b92560405160405180910390a45050565b6000818360405160200161083c92919091825260601b6bffffffffffffffffffffffff1916602082015260340190565b60405160208183030381529060405280519060200120905092915050565b6000610735827f000000000000000000000000000000000000000000000000000000000000000085610c18565b610692828260405180602001604052806000815250610c2e565b6000806108ad83610592565b9050806001600160a01b0316846001600160a01b031614806108f457506001600160a01b0380821660009081526005602090815260408083209388168352929052205460ff165b806109185750836001600160a01b031661090d8461036c565b6001600160a01b0316145b949350505050565b826001600160a01b031661093382610592565b6001600160a01b0316146109595760405162461bcd60e51b81526004016104079061142e565b6001600160a01b0382166109bb5760405162461bcd60e51b8152602060048201526024808201527f4552433732313a207472616e7366657220746f20746865207a65726f206164646044820152637265737360e01b6064820152608401610407565b826001600160a01b03166109ce82610592565b6001600160a01b0316146109f45760405162461bcd60e51b81526004016104079061142e565b600081815260046020908152604080832080546001600160a01b03199081169091556001600160a01b0387811680865260038552838620805460001901905590871680865283862080546001019055868652600290945282852080549092168417909155905184937fddf252ad1be2c89b69c2b068fc378daa952ba7f163c4a11628f55a4df523b3ef91a4505050565b816001600160a01b0316836001600160a01b031603610ae55760405162461bcd60e51b815260206004820152601960248201527f4552433732313a20617070726f766520746f2063616c6c6572000000000000006044820152606401610407565b6001600160a01b03838116600081815260056020908152604080832094871680845294825291829020805460ff191686151590811790915591519182527f17307eab39ab6107e8899845ad3d59bd9653f200f220920489ca2b5937696c31910160405180910390a3505050565b610b5d848484610920565b610b6984848484610c61565b6105405760405162461bcd60e51b815260040161040790611473565b60606000610b9283610d62565b600101905060008167ffffffffffffffff811115610bb257610bb2611253565b6040519080825280601f01601f191660200182016040528015610bdc576020820181803683370190505b5090508181016020015b600019016f181899199a1a9b1b9c1cb0b131b232b360811b600a86061a8153600a8504945084610be657509392505050565b600082610c258584610e3a565b14949350505050565b610c388383610e87565b610c456000848484610c61565b6104a85760405162461bcd60e51b815260040161040790611473565b60006001600160a01b0384163b15610d5757604051630a85bd0160e11b81526001600160a01b0385169063150b7a0290610ca59033908990889088906004016114c5565b6020604051808303816000875af1925050508015610ce0575060408051601f3d908101601f19168201909252610cdd91810190611502565b60015b610d3d573d808015610d0e576040519150601f19603f3d011682016040523d82523d6000602084013e610d13565b606091505b508051600003610d355760405162461bcd60e51b815260040161040790611473565b805181602001fd5b6001600160e01b031916630a85bd0160e11b149050610918565b506001949350505050565b60008072184f03e93ff9f4daa797ed6e38ed64bf6a1f0160401b8310610da15772184f03e93ff9f4daa797ed6e38ed64bf6a1f0160401b830492506040015b6d04ee2d6d415b85acef81000000008310610dcd576d04ee2d6d415b85acef8100000000830492506020015b662386f26fc100008310610deb57662386f26fc10000830492506010015b6305f5e1008310610e03576305f5e100830492506008015b6127108310610e1757612710830492506004015b60648310610e29576064830492506002015b600a83106102d45760010192915050565b600081815b8451811015610e7f57610e6b82868381518110610e5e57610e5e61151f565b6020026020010151611012565b915080610e7781611535565b915050610e3f565b509392505050565b6001600160a01b038216610edd5760405162461bcd60e51b815260206004820181905260248201527f4552433732313a206d696e7420746f20746865207a65726f20616464726573736044820152606401610407565b6000818152600260205260409020546001600160a01b031615610f425760405162461bcd60e51b815260206004820152601c60248201527f4552433732313a20746f6b656e20616c7265616479206d696e746564000000006044820152606401610407565b6000818152600260205260409020546001600160a01b031615610fa75760405162461bcd60e51b815260206004820152601c60248201527f4552433732313a20746f6b656e20616c7265616479206d696e746564000000006044820152606401610407565b6001600160a01b038216600081815260036020908152604080832080546001019055848352600290915280822080546001600160a01b0319168417905551839291907fddf252ad1be2c89b69c2b068fc378daa952ba7f163c4a11628f55a4df523b3ef908290a45050565b600081831061102e576000828152602084905260409020610735565b6000838152602083905260409020610735565b6001600160e01b03198116811461079b57600080fd5b60006020828403121561106957600080fd5b813561073581611041565b60005b8381101561108f578181015183820152602001611077565b50506000910152565b600081518084526110b0816020860160208601611074565b601f01601f19169290920160200192915050565b6020815260006107356020830184611098565b6000602082840312156110e957600080fd5b5035919050565b80356001600160a01b038116811461110757600080fd5b919050565b6000806040838503121561111f57600080fd5b611128836110f0565b946020939093013593505050565b6000806000806060858703121561114c57600080fd5b611155856110f0565b935060208501359250604085013567ffffffffffffffff8082111561117957600080fd5b818701915087601f83011261118d57600080fd5b81358181111561119c57600080fd5b8860208260051b85010111156111b157600080fd5b95989497505060200194505050565b6000806000606084860312156111d557600080fd5b6111de846110f0565b92506111ec602085016110f0565b9150604084013590509250925092565b60006020828403121561120e57600080fd5b610735826110f0565b6000806040838503121561122a57600080fd5b611233836110f0565b91506020830135801515811461124857600080fd5b809150509250929050565b634e487b7160e01b600052604160045260246000fd5b6000806000806080858703121561127f57600080fd5b611288856110f0565b9350611296602086016110f0565b925060408501359150606085013567ffffffffffffffff808211156112ba57600080fd5b818701915087601f8301126112ce57600080fd5b8135818111156112e0576112e0611253565b604051601f8201601f19908116603f0116810190838211818310171561130857611308611253565b816040528281528a602084870101111561132157600080fd5b82602086016020830137600060208483010152809550505050505092959194509250565b6000806040838503121561135857600080fd5b611361836110f0565b915061136f602084016110f0565b90509250929050565b600181811c9082168061138c57607f821691505b6020821081036113ac57634e487b7160e01b600052602260045260246000fd5b50919050565b6020808252602d908201527f4552433732313a2063616c6c6572206973206e6f7420746f6b656e206f776e6560408201526c1c881bdc88185c1c1c9bdd9959609a1b606082015260800190565b60008351611411818460208801611074565b835190830190611425818360208801611074565b01949350505050565b60208082526025908201527f4552433732313a207472616e736665722066726f6d20696e636f72726563742060408201526437bbb732b960d91b606082015260800190565b60208082526032908201527f4552433732313a207472616e7366657220746f206e6f6e20455243373231526560408201527131b2b4bb32b91034b6b83632b6b2b73a32b960711b606082015260800190565b6001600160a01b03858116825284166020820152604081018390526080606082018190526000906114f890830184611098565b9695505050505050565b60006020828403121561151457600080fd5b815161073581611041565b634e487b7160e01b600052603260045260246000fd5b60006001820161155557634e487b7160e01b600052601160045260246000fd5b506001019056fea2646970667358221220b12fe09ee166608d92003f428aec68632c8dc193164a374c632d788deddcb38f64736f6c63430008120033",
    "linkReferences": {}
  },
  "methodIdentifiers": {
    "approve(address,uint256)": "095ea7b3",
    "balanceOf(address)": "70a08231",
    "getApproved(uint256)": "081812fc",
    "isApprovedForAll(address,address)": "e985e9c5",
    "name()": "06fdde03",
    "ownerOf(uint256)": "6352211e",
    "redeem(address,uint256,bytes32[])": "14132f48",
    "root()": "ebf0c717",
    "safeTransferFrom(address,address,uint256)": "42842e0e",
    "safeTransferFrom(address,address,uint256,bytes)": "b88d4fde",
    "setApprovalForAll(address,bool)": "a22cb465",
    "supportsInterface(bytes4)": "01ffc9a7",
    "symbol()": "95d89b41",
    "tokenURI(uint256)": "c87b56dd",
    "transferFrom(address,address,uint256)": "23b872dd"
  },
  "id": 2
}