{
  "abi": [
    {
      "inputs": [
        {
          "internalType": "contract MockNft",
          "name": "token_",
          "type": "address"
        },
        {
          "internalType": "bytes32",
          "name": "merkleRoot_",
          "type": "bytes32"
        }
      ],
      "stateMutability": "nonpayable",
      "type": "constructor"
    },
    {
      "inputs": [],
      "name": "AlreadyClaimed",
      "type": "error"
    },
    {
      "inputs": [],
      "name": "InvalidProof",
      "type": "error"
    },
    {
      "anonymous": false,
      "inputs": [
        {
          "indexed": false,
          "internalType": "uint256",
          "name": "tokenId",
          "type": "uint256"
        },
        {
          "indexed": false,
          "internalType": "address",
          "name": "account",
          "type": "address"
        }
      ],
      "name": "ClaimedNft",
      "type": "event"
    },
    {
      "inputs": [
        {
          "internalType": "uint256",
          "name": "tokenId",
          "type": "uint256"
        },
        {
          "internalType": "address",
          "name": "account",
          "type": "address"
        },
        {
          "internalType": "bytes32[]",
          "name": "merkleProof",
          "type": "bytes32[]"
        }
      ],
      "name": "claim",
      "outputs": [],
      "stateMutability": "nonpayable",
      "type": "function"
    },
    {
      "inputs": [
        {
          "internalType": "uint256",
          "name": "tokenId",
          "type": "uint256"
        }
      ],
      "name": "isClaimed",
      "outputs": [
        {
          "internalType": "bool",
          "name": "claimed",
          "type": "bool"
        }
      ],
      "stateMutability": "view",
      "type": "function"
    },
    {
      "inputs": [],
      "name": "merkleRoot",
      "outputs": [
        {
          "internalType": "bytes32",
          "name": "",
          "type": "bytes32"
        }
      ],
      "stateMutability": "view",
      "type": "function"
    },
    {
      "inputs": [],
      "name": "token",
      "outputs": [
        {
          "internalType": "contract MockNft",
          "name": "",
          "type": "address"
        }
      ],
      "stateMutability": "view",
      "type": "function"
    }
  ],
  "bytecode": {
    "object": "0x60c060405234801561001057600080fd5b506040516105c73803806105c783398101604081905261002f91610045565b6001600160a01b0390911660805260a05261007f565b6000806040838503121561005857600080fd5b82516001600160a01b038116811461006f57600080fd5b6020939093015192949293505050565b60805160a0516105176100b060003960008181605601526101d801526000818160e7015261025601526105176000f3fe608060405234801561001057600080fd5b506004361061004c5760003560e01c80632eb4a7ab146100515780639e34070f1461008b578063f72d82cf146100cd578063fc0c546a146100e2575b600080fd5b6100787f000000000000000000000000000000000000000000000000000000000000000081565b6040519081526020015b60405180910390f35b6100bd6100993660046103a1565b600881901c600090815260208190526040812054600160ff84161b16151592915050565b6040519015158152602001610082565b6100e06100db3660046103ba565b610121565b005b6101097f000000000000000000000000000000000000000000000000000000000000000081565b6040516001600160a01b039091168152602001610082565b600884901c600090815260208190526040902054600160ff86161b161561015b57604051630c8d9eab60e31b815260040160405180910390fd5b6000848460405160200161018b92919091825260601b6bffffffffffffffffffffffff1916602082015260340190565b6040516020818303038152906040528051906020012090506102038383808060200260200160405190810160405280939291908181526020018383602002808284376000920191909152507f0000000000000000000000000000000000000000000000000000000000000000925085915061030c9050565b610220576040516309bde33960e01b815260040160405180910390fd5b600885901c60009081526020819052604090208054600160ff88161b17905560405163028265e960e31b81526001600160a01b037f000000000000000000000000000000000000000000000000000000000000000016906314132f4890610291908790899088908890600401610452565b600060405180830381600087803b1580156102ab57600080fd5b505af11580156102bf573d6000803e3d6000fd5b5050604080518881526001600160a01b03881660208201527f3fa7023c96f4790e8a40f2eb2147658bb04f0e46b300b15b82d302473bf79e15935001905060405180910390a15050505050565b6000826103198584610322565b14949350505050565b600081815b84518110156103675761035382868381518110610346576103466104a4565b602002602001015161036f565b91508061035f816104ba565b915050610327565b509392505050565b600081831061038b57600082815260208490526040902061039a565b60008381526020839052604090205b9392505050565b6000602082840312156103b357600080fd5b5035919050565b600080600080606085870312156103d057600080fd5b8435935060208501356001600160a01b03811681146103ee57600080fd5b9250604085013567ffffffffffffffff8082111561040b57600080fd5b818701915087601f83011261041f57600080fd5b81358181111561042e57600080fd5b8860208260051b850101111561044357600080fd5b95989497505060200194505050565b6001600160a01b038516815260208101849052606060408201819052810182905260006001600160fb1b0383111561048957600080fd5b8260051b808560808501379190910160800195945050505050565b634e487b7160e01b600052603260045260246000fd5b6000600182016104da57634e487b7160e01b600052601160045260246000fd5b506001019056fea2646970667358221220791abacfd462bcf31f8f09245d52db1aaf2720fff1bf18f30ca3f87d15ae574564736f6c63430008120033",
    "linkReferences": {}
  },
  "methodIdentifiers": {
    "claim(uint256,address,bytes32[])": "f72d82cf",
    "isClaimed(uint256)": "9e34070f",
    "merkleRoot()": "2eb4a7ab",
    "token()": "fc0c546a"
  },
  "id": 0
}